:020000040800F2
:10000000C0070020890F0008BD020008BF020008D9
:10001000C3020008C7020008CB020008000000006D
:10002000000000000000000000000000CF020008F7
:10003000D102000800000000D3020008D502000829
:10004000A30F0008A30F0008A30F0008A30F0008C8
:10005000A30F0008A30F00081B0B0008A30F000844
:10006000A30F0008A30F0008A30F0008A30F0008A8
:10007000A30F0008A30F0008A30F0008A30F000898
:10008000A30F0008A30F0008A30F0008A30F000888
:10009000A30F0008A30F0008A30F0008A30F000878
:1000A000A30F0008A30F0008A30F0008A30F000868
:1000B000A30F0008A30F0008A30F0008A30F000858
:1000C000A30F0008A30F0008A30F0008A30F000848
:1000D000A30F0008F70E0008DD0E0008A30F0008AC
:1000E000A30F0008A30F0008A30F0008A30F000828
:1000F000A30F0008A30F0008A30F0008A30F000818
:10010000A30F0008A30F0008A30F0008A30F000807
:10011000A30F0008A30F0008A30F0008A30F0008F7
:10012000A30F0008A30F0008A30F0008A30F0008E7
:1001300000F002F800F03AF80AA090E8000C8244BF
:100140008344AAF10107DA4501D100F02FF8AFF29C
:10015000090EBAE80F0013F0010F18BFFB1A43F0A5
:1001600001031847381C0000581C0000103A24BF37
:1001700078C878C1FAD8520724BF30C830C144BF0C
:1001800004680C607047000000230024002500264E
:10019000103A28BF78C1FBD8520728BF30C148BFEA
:1001A0000B6070471FB51FBD10B510BD01F0C3FD3A
:1001B0001146FFF7F7FF00F009F801F0E1FD03B485
:1001C000FFF7F2FF03BC00F0DBFD000000F06EFD66
:1001D0004FF4A06001F07CFC4FF4165000F0DFFDFE
:1001E00000F029FE00F0E4FC00F016FC00F064F9D9
:1001F00001202F4908602F49C1F8880100F084F9D7
:1002000000F0DFF953E02C480078312807D100F0E6
:10021000F5FA322000F087FD0020274908702648B3
:100220000078322807D100F080FA322000F07BFD00
:1002300000202149087020480078332807D100F0B9
:100240003CFA322000F06FFD00201B4908701A486C
:100250000078342807D100F082FA322000F063FDE4
:1002600000201549087014480078352807D100F09F
:10027000C3F9322000F057FD00200F4908700E48E6
:100280000078362807D100F0D2F9322000F04BFD7B
:1002900000200949087008480078372807D100F085
:1002A000E1F9322000F03FFD002003490870AAE781
:1002B000A00121420080224282000020704700BF3E
:1002C000FEE700BFFEE700BFFEE700BFFEE77047A6
:1002D00070477047704700000CB5002001900090F7
:1002E0006C48006840F480306A49086000BF694883
:1002F000006800F4003000900198401C01900098C4
:1003000018B90198B0F5A06FF1D16248006800F407
:10031000003010B10120009001E000200090009812
:10032000012843D15C48006840F010005A49086039
:100330000846006820F0030008600846006840F0A6
:1003400002000860534840685249486008464068C7
:1003500048600846406840F480604860084640684D
:1003600020F47C1048600846406840F4E81048607B
:100370000846006840F08070086000BF454800688B
:1003800000F000700028F9D04248406820F00300D7
:10039000404948600846406840F00200486000BF9D
:1003A0003C48406800F00C000828F9D10CBD10B59D
:1003B000FFF792FF10BD10B53648006840F001000D
:1003C000344908600846406834490840314948606B
:1003D00008460068324908402E490860084600680F
:1003E00020F4802008600846406820F4FE00486041
:1003F0004FF41F008860FFF7DAFF4FF000602949D3
:10040000086010BD10B5002100200022214B5B6860
:1004100003F00C0121B1042906D0082928D107E0F6
:10042000214B224C236027E01F4B204C236023E00C
:10043000184B5B6803F47010164B5B6803F4803252
:10044000022303EB904022B9194B4343174C23601E
:100450000DE0104B5B6803F4003323B1144B4343AE
:10046000124C236003E0104B4343104C236003E025
:100470000D4B0E4C236000BF00BF064B5B68C3F3FF
:1004800003130C4CE15C094B1B68CB40074C236009
:1004900010BD000000100240002002400000FFF8E4
:1004A000FFFFF6FE08ED00E000127A0000000020D9
:1004B00000093D000400002008B50121242001F0BE
:1004C0009FF84FF48070ADF8000010208DF8030005
:1004D00003208DF802006946094800F0D5FD4FF46D
:1004E0008071074800F07DFE0420ADF800006946E9
:1004F000044800F0C9FD0421024800F072FE08BD66
:1005000000080140001401401CB5FEA103C9CDE95B
:100510000001002410E000BF4021FC4801F07EFAF9
:100520000128F9D11DF80410F84801F009FA6420F7
:1005300000F0F9FB601C84B2052CECDB1CBD10B58F
:10054000002417E000BF4021F04801F067FA0128BD
:10055000F9D1EF48006800EB8000EE4A02EB400062
:1005600030F81410E94801F0EBF9642000F0DBFBEF
:10057000601C84B2052CE5DBE5480068032805D043
:10058000E3480068401CE249086002E00020E049BE
:10059000086010BD70B5054600240FE000BF402183
:1005A000DA4801F03BFA0128F9D1295DD74801F07A
:1005B000C7F9642000F0B7FB601C84B2142CEDDB9B
:1005C00070BD1CB5D4A103C9CDE90001002410E021
:1005D00000BF4021CD4801F021FA0128F9D11DF8D2
:1005E0000410CA4801F0ACF9642000F09CFB601CC8
:1005F00084B2052CECDB1CBD1CB5C9A103C9CDE937
:100600000001002410E000BF4021C04801F006FABC
:100610000128F9D11DF80410BC4801F091F96420BB
:1006200000F081FB601C84B2052CECDB1CBD1CB50A
:10063000BDA103C9CDE90001002410E000BF4021A5
:10064000B24801F0EBF90128F9D11DF80410AF48C8
:1006500001F076F9642000F066FB601C84B2052C82
:10066000ECDB1CBD10B5002417E000BF4021A748FB
:1006700001F0D4F90128F9D1AD48006800EB800001
:10068000AC4A02EB400030F81410A04801F058F9D1
:10069000642000F048FB601C84B2052CE5DBA44814
:1006A0000068042805D0A2480068401CA0490860E2
:1006B00002E000209E49086010BD38B59EA0006889
:1006C0000090002410E000BF4021904801F0A6F9FE
:1006D0000128F9D11DF804108C4801F031F964208B
:1006E00000F021FB601CC4B2042CECDB38BD10B55B
:1006F00086B0182291A1684601F0E7FA002410E0C4
:1007000000BF4021814801F089F90128F9D11DF885
:1007100004107E4801F014F9642000F004FB601C12
:10072000C4B2162CECDB06B010BD38B589A0006849
:100730000090002410E000BF4021744801F06EF9E1
:100740000128F9D11DF80410704801F0F9F864206F
:1007500000F0E9FA601CC4B2042CECDB38BD38B5FB
:100760007DA000680090002410E000BF4021674891
:1007700001F054F90128F9D11DF80410634801F083
:10078000DFF8642000F0CFFA601CC4B2042CECDB6C
:1007900038BD38B571A000680090002410E000BF9B
:1007A00040215A4801F03AF90128F9D11DF8041006
:1007B000564801F0C5F8642000F0B5FA601CC4B2D8
:1007C000042CECDB38BD1CB565A103C9CDE90001E3
:1007D000002410E000BF40214C4801F01FF901281F
:1007E000F9D11DF80410494801F0AAF8642000F07E
:1007F0009AFA601CC4B2062CECDB1CBD1CB55AA1D5
:1008000003C9CDE90001002410E000BF40213F48AA
:1008100001F004F90128F9D11DF804103B4801F05A
:100820008FF8642000F07FFA601CC4B2062CECDB69
:100830001CBD1CB54EA103C9CDE90001002410E088
:1008400000BF4021314801F0E9F80128F9D11DF835
:1008500004102E4801F074F8642000F064FA601C63
:10086000C4B2062CECDB1CBD1CB543A103C9CDE909
:100870000001002410E000BF4021244801F0CEF820
:100880000128F9D11DF80410204801F059F864201E
:1008900000F049FA601CC4B2062CECDB1CBD1CB590
:1008A00037A103C9CDE90001002410E000BF4021B9
:1008B000164801F0B3F80128F9D11DF804101348C7
:1008C00001F03EF8642000F02EFA601CC4B2062C41
:1008D000ECDB1CBD1CB52CA103C9CDE90001002433
:1008E00057E000BF4021094801F098F80128F9D1EC
:1008F0001DF80410054801F023F8642000F013FAF5
:10090000601C45E0AA0B0101B7000000003801405F
:10091000180000204E000020AA130120DE00000075
:10092000AA130130EE000000AA130110CE0000004F
:10093000140000201C000020AA0500AFAA08120124
:100940002FCED2B5C42A2FC7EBC9D4B5C82A3F3F92
:100950003F190000AA0600B0AA0300ADAA0400AE29
:10096000AA07020006B90000AA07020001B40000AD
:10097000AA07020002B50000AA07020003B60000A1
:10098000AA07020004B70000AA07020005B8000089
:10099000C4B2062CA5DB1CBD1CB51AA103C9CDE948
:1009A0000001002410E000BF4021184801F036F893
:1009B0000128F9D11DF80410144800F0C1FF64208B
:1009C00000F0B1F9601CC4B2062CECDB1CBD1CB5F8
:1009D0000FA103C9CDE90001002410E000BF4021B0
:1009E0000A4801F01BF80128F9D11DF80410074846
:1009F00000F0A6FF642000F096F9601CC4B2062C3B
:100A0000ECDB1CBDAA07020007BA00000038014059
:100A1000AA07020008BB00001FB50121082000F052
:100A2000EFFD4FF48070ADF80C0028208DF80F001A
:100A300003208DF80E0003A95B4800F025FB4FF45E
:100A40008071594800F0CDFB0121084600F0D8FD27
:100A500000F0AEF80521022000F02CFC20200190CF
:100A600000208DF808000C208DF8090001208DF879
:100A70000A0001A801F0A8F80F21002000F01AFCDC
:100A80004FF40040019000208DF808000C208DF8F4
:100A9000090001208DF80A0001A801F095F8002155
:100AA000084600F007FC0120019000208DF80800A6
:100AB00008208DF8090001208DF80A0001A801F036
:100AC00083F806208DF8000002208DF801008DF8D3
:100AD000020001208DF80300684600F0FEFF172099
:100AE0008DF8000002208DF8010001208DF8020031
:100AF0008DF80300684600F0F0FF28208DF8000014
:100B000002208DF8010000208DF8020001208DF8F0
:100B10000300684600F0E1FF1FBD70B50026002508
:100B20000A2000F000F90121204800F040FB0128D4
:100B300035D103E00E2000F0F6F86D1C01211B48B2
:100B400000F035FB012801D1C82DF3DBB42D26DAE6
:100B500000240AE00E2000F0E6F80121134800F01E
:100B600026FB012800D10126641C142CF2DB002492
:100B70000AE00E2000F0D7F801210C4800F017FB26
:100B8000012800D10226641C282CF2DB012E03D19F
:100B90004FF4967000F0C7F80EB9FFF763FD01201F
:100BA00001F089F870BD0000000C01400008014010
:100BB00008B50121142000F023FD0121374800F081
:100BC00034FB4FF40040ADF8000048208DF80300DE
:100BD0006946334800F058FA2020ADF8000048205C
:100BE0008DF8030069462F4800F04EFA0120ADF859
:100BF000000028208DF803006946294800F044FAD7
:100C000008BD10B5044614B10120274908702648D4
:100C1000007868B32021234800F0C9FA58B14FF496
:100C200000411F4800F0C3FA28B101211C4800F020
:100C3000BEFA01281CD10A2000F075F800201A49DC
:100C400008702021174800F0B2FA08B9012010BD41
:100C50004FF40041124800F0AAFA08B90220F6E762
:100C600001210F4800F0A3FA012815D10320EEE777
:100C700020210C4800F09BFA01280DD1C10308483F
:100C800000F095FA012807D10121054800F08FFAFC
:100C900010B90120044908700020D8E70002300094
:100CA00000080140001001407600002010B56FF0F0
:100CB000040000F05CFF2E4800682E49B0FBF1F004
:100CC0002D4908700846007800EB4001C1EBC010C8
:100CD0004FF6FF7101EAC0002849088010BD0146A7
:100CE000254A12784A434FF0E0235A6100229A6164
:100CF0001A46126942F001021A6100BF4FF0E02269
:100D0000106900F001021AB100F48032002AF5D017
:100D10004FF0E022126922F001024FF0E0231A6145
:100D200000229A6170470146144A12884A434FF0E4
:100D3000E0235A6100229A611A46126942F00102C8
:100D40001A6100BF4FF0E022106900F001021AB1F1
:100D500000F48032002AF5D04FF0E022126922F030
:100D600001024FF0E0231A6100229A6170470000EF
:100D70000000002000127A00780000207A00002095
:100D8000014600BF704700BF794A128802F0400256
:100D9000002AF9D0C2B2764B1B1D1A80704710B5DD
:100DA00086B00446012144F2040000F029FC4FF40F
:100DB0000070ADF8140003208DF8160018208DF88F
:100DC000170005A96B4800F05FF94FF48060ADF89B
:100DD000140004208DF8170005A9664800F054F9A6
:100DE00025208DF8000003208DF801008DF8020009
:100DF00001208DF80300684600F06FFE019400208A
:100E0000ADF80800ADF80A00ADF80C00ADF8100020
:100E10000C20ADF80E0001A9554800F098FC012205
:100E200040F22551524800F02AFD0121504800F0BF
:100E30001AFD06B010BD00B587B00121042000F0F6
:100E4000DFFB0121480400F0E8FB18208DF81B00AF
:100E50000420ADF8180001208DF81A0006A94548B5
:100E600000F012F904208DF81B000820ADF81800DE
:100E700001208DF81A0006A93E4800F005F94FF44C
:100E8000E13002900020ADF814000C20ADF8120003
:100E90000020ADF81000ADF80E00ADF80C0002A96E
:100EA000354800F054FC0121334800F0DCFC0122FD
:100EB00040F22551304800F0E2FC26208DF8040075
:100EC00001208DF8070000208DF8050001208DF825
:100ED000060001A800F001FE07B000BD10B540F209
:100EE0002551254800F0B0FD20B1234800F02CFD2D
:100EF0002249087010BD10B540F225511C4800F081
:100F0000A3FD10B31A4800F01FFDC4B21C480088AE
:100F100000F40040C8B91A48008800F4804060B16D
:100F20000A2C03D000201649088020E014480088CD
:100F300040F400401249088019E00D2C06D11048F9
:100F4000008840F480400E49088010E00C4800887A
:100F5000C0F30D000B490C5409480088401C084997
:100F6000088008460088C72801DD0020088010BDE1
:100F70000038014000080140004400408200002089
:100F80008000002098000020094880470948004759
:100F9000FEE7FEE7FEE7FEE7FEE7FEE7FEE7FEE729
:100FA000FEE7FEE704480549054A064B7047000086
:100FB000B703000831010008C0010020C00700206D
:100FC000C0030020C003002010B50446CC48844272
:100FD00008D10121042000F02DFB0021042000F0A5
:100FE00029FB46E0C748844208D10121082000F0CF
:100FF00021FB0021082000F01DFB3AE0C24884429A
:1010000008D10121102000F015FB0021102000F074
:1010100011FB2EE0BD48844208D10121202000F0C0
:1010200009FB0021202000F005FB22E0B8488442A3
:1010300008D10121402000F0FDFA0021402000F0FD
:10104000F9FA16E0B348844208D10121802000F06B
:10105000F1FA0021802000F0EDFA0AE0AE48844267
:1010600007D10121801500F0E5FA0021A01500F05C
:10107000E1FA10BD10B50121084600F0DBFA0021AD
:10108000012000F0D7FA10BD2DE9F04102460025FD
:101090000026002000230024002791F803C00CF054
:1010A0000F0591F803C00CF0100CBCF1000F03D039
:1010B00091F802C04CEA050591F800C0BCF1000FA0
:1010C00031D0146800202BE04FF0010C0CFA00F333
:1010D000B1F800C00CEA03069E4220D183004FF015
:1010E0000F0C0CFA03F7BC4305FA03FC4CEA0404AA
:1010F00091F803C0BCF1280F06D14FF0010C0CFA97
:1011000000FCC2F814C00AE091F803C0BCF1480F1B
:1011100005D14FF0010C0CFA00FCC2F810C0401CC5
:101120000828D1D31460B1F800C0BCF1FF0F34DD42
:10113000546800202EE000F1080C4FF0010808FA76
:101140000CF3B1F800C00CEA03069E4221D18300E3
:101150004FF00F0C0CFA03F7BC4305FA03FC4CEA02
:10116000040491F803C0BCF1280F05D100F1080C6C
:1011700008FA0CF8C2F8148091F803C0BCF1480FCB
:1011800007D100F1080C4FF0010808FA0CF8C2F87A
:101190001080401C0828CED35460BDE8F0814FF683
:1011A000FF710180022181700421C17070470246E5
:1011B000002093680B400BB1012000E00020704735
:1011C0000146886880B2704702460020D3680B4011
:1011D0000BB1012000E0002070470146C86880B2D2
:1011E000704701617047416170470AB1016100E0D9
:1011F00041617047C16070474FF480320A43826199
:101200008161826182698269704702460020434B96
:1012100018684FF68073184040EA021008433F4BAD
:10122000186070473E49C8617047F0B50A46002310
:1012300000240021002500F00046B6F1004F02D145
:10124000364EF16901E0354E7168C0F3034583B253
:1012500000F44016B6F5401F08D121F070612F4E02
:10126000766826F070662D4F7E6012E000F48016DE
:10127000B6F5801F06D1032606FA05F4A14341F016
:10128000706106E0460D360103FA06F6B14341F0FF
:10129000706122B1460D360103FA06F6314300F0C3
:1012A0000046B6F1004F02D11C4EF16101E01B4E29
:1012B0007160F0BD30B500228B071C0F0F2303FABD
:1012C00004F2164B08338C1053F824309343134C1C
:1012D00008348D1044F8253023468C1053F8243000
:1012E0008C07240F00FA04F423430C4C08348D10AF
:1012F00044F8253030BD0A49DC31086070470000F1
:1013000000080140000C01400010014000140140A1
:1013100000180140001C0140002001400000014075
:1013200000002042DF48006840F00100DD4908600D
:1013300008464068DC490840DA49486008460068C9
:10134000DA490840D74908600846006820F4802040
:1013500008600846406820F4FE0048604FF41F0013
:1013600088607047CF49096821F48031CD4A116007
:101370001146096821F480211160B0F5803F03D047
:10138000B0F5802F0ED106E0C649096841F48031DE
:10139000C44A116007E0C349096841F4A021C14A69
:1013A000116000E000BF00BF704710B50146002289
:1013B000002300204A11012A02D1BA4C236806E01A
:1013C000022A02D1B74C236A01E0B64C636A01F0ED
:1013D0001F02012494401C400CB1012000E00020B9
:1013E00010BD38B5002000900024002500BF31203A
:1013F000FFF7DBFF05460098401C00900098B0F511
:10140000A06F01D0002DF2D03120FFF7CEFF08B140
:10141000012400E00024204638BD01460020A14AF6
:10142000106820F0F80040EAC10010607047A04941
:1014300008607047024600209A4B586820F47C10E0
:1014400042EA01031843974B586070479849086671
:10145000704701460020934A506820F0030008437B
:10146000506070478F48406800F00C00704701469C
:1014700000208C4A506820F0F0000843506070470C
:1014800001460020874A506820F4E060084350601D
:10149000704701460020834A506820F4605040EABB
:1014A000C1005060704729B17E4A527A02437D4B99
:1014B0005A7204E07B4A527A82437A4B5A727047DE
:1014C0007B49D8310860704701460020754A506852
:1014D00020F440400843506070470021714A203298
:1014E0001170704A82F82010012802D004280AD115
:1014F00004E001216B4A2032117005E00521694AA0
:101500002032117000E000BF00BF704769490860D9
:1015100070476449096A0143624A1162704765492C
:1015200044390860704730B50021002200240023B0
:101530005C4D6D6805F00C0121B1042905D0082926
:1015400023D105E05C4D056022E05B4D05601FE0A6
:10155000544D6D6805F47012524D6D6805F4803479
:10156000022505EB92421CB9544D554305600BE032
:101570004C4D6D6805F400351DB1504D5543056067
:1015800002E04D4D5543056002E04B4D056000BF44
:1015900000BF444D6D6805F0F0010909484D6B5CD2
:1015A0000568DD4045603F4D6D6805F4E061090A5E
:1015B000434D6B5C4568DD4085603A4D6D6805F4D0
:1015C0006051C90A3E4D6B5C4568DD40C560354DD4
:1015D0006D6805F44041890B3A4D6B5CC568B5FBFD
:1015E000F3F5056130BD29B12E4A526902432D4BF6
:1015F0005A6104E02B4A526982432A4B5A61704770
:1016000029B1284A92690243264B9A6104E0254A8F
:1016100092698243234B9A61704729B1214AD2696A
:101620000243204BDA6104E01E4AD26982431D4B1B
:10163000DA61704729B11B4AD2680243194BDA605C
:1016400004E0184AD2688243164BDA60704729B129
:10165000144A12690243134B1A6104E0114A1269D9
:101660008243104B1A617047124940390860704735
:101670000F49C86470470B49C87170470948406AF0
:1016800040F0807007494862704701460020054AD3
:1016900092680A400AB1012000E000207047014929
:1016A00088727047001002400000FFF8FFFFF6FE4E
:1016B000000042428004424200127A0000093D00CC
:1016C000830000209300002010B50446FB488442AC
:1016D00009D101218803FFF7ADFF00214FF48040BD
:1016E000FFF7A8FF32E0F648844209D101214804FF
:1016F000FFF7ADFF00214FF40030FFF7A8FF25E012
:10170000F048844209D101218804FFF7A0FF00219D
:101710004FF48020FFF79BFF18E0EB48844209D18B
:101720000121C804FFF793FF00214FF40020FFF7C9
:101730008EFF0BE0E548844208D101210805FFF740
:1017400086FF00214FF48010FFF781FF10BD2DE9C7
:10175000F04786B005460E460024A24600BFA146CB
:101760000027B08900B100BF2F462C8A4CF6FF70CD
:101770000440F08804432C82AC894EF6F3100440F8
:10178000B08831890843718908430443AC81AC8A2D
:101790004FF6FF400440B0890443AC8201A8FFF734
:1017A000C2FEC648874202D1DDF810A001E0DDF894
:1017B0000CA0A88900F4004040B10AEBCA0000EB7D
:1017C0000A1031684900B0FBF1F807E00AEBCA00E3
:1017D00000EB0A1031688900B0FBF1F86420B8FB17
:1017E000F0F004012009642101FB1089A88900F4AC
:1017F000004040B1322000EBC900B0FBF1F000F036
:101800000700044308E0322000EB09106421B0FB1C
:10181000F1F000F00F0004432C8106B0BDE8F08722
:101820004FF41651016000218180C18001810C219B
:10183000418100218181704710B502460020108A45
:101840004FF2FF0318400B884C8823438C882343B6
:10185000CC8823431843108210BD002101804180B1
:101860008180C180704721B1828942F40052828117
:1018700004E082894DF6FF731A4082817047F0B50B
:101880000346002400260025002040F66A17B942CE
:1018900000D100BF1846C1F3421401F01F06012712
:1018A00007FA06F5012C01D10C3004E0022C01D11D
:1018B000103000E014301AB107682F43076002E0CF
:1018C0000768AF430760F0BD1AB1838A0B43838278
:1018D00002E0838A8B4383827047028A4FF6F0735B
:1018E0001A400282028A0A430282704782894FF2BA
:1018F000FF731A40828182890A438281704721B135
:10190000828942F00202828104E082894FF6FD73EF
:101910001A4082817047028A4FF6DF731A400282B2
:10192000028A0A430282704721B1028A42F480424D
:10193000028204E0028A4BF6FF731A40028270476B
:10194000C1F308028280704701468888C0F308000E
:101950007047818941F0010181817047028BD2B2C9
:101960000283028B42EA012202837047028B02F457
:101970007F420283028B0A430283704721B1828A2D
:1019800042F02002828204E0828A4FF6DF731A401E
:101990008282704721B1828A42F01002828204E082
:1019A000828A4FF6EF731A408282704721B1828A91
:1019B00042F00802828204E0828A4FF6F7731A40EE
:1019C0008282704721B1828942F40042828103E021
:1019D0008289C2F30E028281704721B1828A42F469
:1019E0000062828204E0828A4FF2FF731A40828290
:1019F0007047828A4FF6FB731A408282828A0A43BA
:101A00008282704721B1828A42F00202828204E01F
:101A1000828A4FF6FD731A40828270470246002088
:101A2000B1F5007F00D100BF13880B400BB101203E
:101A300000E00020704701F40072B2F5007F00D191
:101A400000BFCA430280704770B5024600240023DD
:101A50000025002040F66A16B14200D100BFC1F354
:101A6000421501F01F03012606FA03F3012D02D1EE
:101A70009689334006E0022D02D1168A334001E0F8
:101A8000968A33400C12012606FA04F41688344074
:101A900013B10CB1012000E0002070BD10B5002290
:101AA000002340F66A14A14200D100BF0A120124AB
:101AB0009440A3B2DC43048010BD00000038014014
:101AC0000044004000480040004C004000500040EE
:101AD00031490143314A1160704770B5002100233C
:101AE0000F22C47804B32D4C246804F4E064C4F5D8
:101AF000E064210AC1F10403CA40447804FA03F106
:101B00008478144021430901254C0678A1550478B6
:101B100004F01F050124AC4005786D11AD0005F1FE
:101B2000E025C5F8004109E0047804F01F05012410
:101B3000AC401C4D0678761145F8264070BD1A4A17
:101B40000A400243154B1B1F1A60704739B1134AF4
:101B5000121D12680243114B1B1D1A6006E00F4A4A
:101B6000121D126882430D4B1B1D1A60704704281A
:101B700008D14FF0E021096941F004014FF0E02263
:101B8000116107E04FF0E021096921F004014FF0F5
:101B9000E0221161704700000000FA050CED00E042
:101BA00000E400E080E100E080FFFF1F00204449E6
:101BB0000860091D0860091D0860091D086041488A
:101BC0003F4914310860704700213D498279002A5D
:101BD0003AD00A46126803689A430B461A600A1DF7
:101BE000126803689A430B1D1A60027911440A684F
:101BF00003681A430A60324A0832126803689A433B
:101C00002F4B08331A601A1D126803689A432C4B35
:101C10000C331A604279102A0ED11A1F1268036819
:101C20001A43274B08331A601A1D126803681A43B7
:101C3000234B0C331A600DE02149427911440A68A4
:101C400003681A430A6005E0027911440A680368D0
:101C50009A430A6070470021016001710C214171B3
:101C60000021817170471649103109680143144AF7
:101C700010321160704701460020114A1432126878
:101C80000A400AB1012000E0002070470C491431DD
:101C900008607047014600200022094B1B6803EAD8
:101CA0000102074B14331B680B4013B10AB101202A
:101CB00000E00020704702491431086070470000BE
:101CC00000040140FFFF0F00704710B5203AC0F03C
:101CD0000B80B1E81850203AA0E81850B1E818502D
:101CE000A0E81850BFF4F5AF5FEA027C24BFB1E86A
:101CF0001850A0E8185044BF18C918C0BDE81040DB
:101D00005FEA827C24BF51F8043B40F8043B08BFE3
:101D10007047D20728BF31F8023B48BF11F8012BAA
:101D200028BF20F8023B48BF00F8012B70477047DE
:101D3000704770477047754600F02CF8AE460500B6
:101D40006946534620F00700854618B020B5FFF7D6
:101D500029F9BDE820404FF000064FF000074FF092
:101D600000084FF0000B21F00701AC46ACE8C009B9
:101D7000ACE8C009ACE8C009ACE8C0098D467047C2
:101D800010B50446AFF300802046BDE81040FEF7D2
:101D900016BA00000048704760010020BC1D000812
:101DA00000000020980000006C010008541E00088C
:101DB00098000020280700008801000800A24A04BB
:101DC00000000000000000000102030406070809EB
:101DD0000000000000000000AA001A00010000003E
:101DE000C500AA001A0001000100C600AA001A00DE
:101DF00001000200C700AA001A0001000300C80089
:101E0000AA001A0001000400C900AA00180001007D
:101E10000000C400AA00180001000100C500AA00CB
:101E2000180001000200C600AA001800010003000B
:101E3000C7000100000000000000000000000000DA
:101E4000000000010203040102030406070809025E
:041E5000040608007C
:0400000508000131BD
:00000001FF
